{
  "address": "0xA700B4C754401e0a2aD9fB1C9Af5C8f46888c808",
  "abi": [
    {
      "inputs": [
        {
          "internalType": "address",
          "name": "_pyUSD",
          "type": "address"
        },
        {
          "internalType": "address",
          "name": "_oracle",
          "type": "address"
        }
      ],
      "stateMutability": "nonpayable",
      "type": "constructor"
    },
    {
      "inputs": [
        {
          "internalType": "address",
          "name": "owner",
          "type": "address"
        }
      ],
      "name": "OwnableInvalidOwner",
      "type": "error"
    },
    {
      "inputs": [
        {
          "internalType": "address",
          "name": "account",
          "type": "address"
        }
      ],
      "name": "OwnableUnauthorizedAccount",
      "type": "error"
    },
    {
      "anonymous": false,
      "inputs": [
        {
          "indexed": true,
          "internalType": "address",
          "name": "user",
          "type": "address"
        },
        {
          "indexed": false,
          "internalType": "uint256",
          "name": "amount",
          "type": "uint256"
        }
      ],
      "name": "CollateralDeposited",
      "type": "event"
    },
    {
      "anonymous": false,
      "inputs": [
        {
          "indexed": true,
          "internalType": "address",
          "name": "user",
          "type": "address"
        },
        {
          "indexed": false,
          "internalType": "uint256",
          "name": "amount",
          "type": "uint256"
        }
      ],
      "name": "EquiAssetBurned",
      "type": "event"
    },
    {
      "anonymous": false,
      "inputs": [
        {
          "indexed": true,
          "internalType": "address",
          "name": "user",
          "type": "address"
        },
        {
          "indexed": false,
          "internalType": "uint256",
          "name": "amount",
          "type": "uint256"
        }
      ],
      "name": "EquiAssetMinted",
      "type": "event"
    },
    {
      "anonymous": false,
      "inputs": [
        {
          "indexed": true,
          "internalType": "address",
          "name": "user",
          "type": "address"
        },
        {
          "indexed": true,
          "internalType": "address",
          "name": "liquidator",
          "type": "address"
        },
        {
          "indexed": false,
          "internalType": "uint256",
          "name": "debtRepaid",
          "type": "uint256"
        },
        {
          "indexed": false,
          "internalType": "uint256",
          "name": "collateralSeized",
          "type": "uint256"
        }
      ],
      "name": "Liquidated",
      "type": "event"
    },
    {
      "anonymous": false,
      "inputs": [
        {
          "indexed": true,
          "internalType": "address",
          "name": "previousOwner",
          "type": "address"
        },
        {
          "indexed": true,
          "internalType": "address",
          "name": "newOwner",
          "type": "address"
        }
      ],
      "name": "OwnershipTransferred",
      "type": "event"
    },
    {
      "inputs": [],
      "name": "ASSET_DECIMAL",
      "outputs": [
        {
          "internalType": "uint256",
          "name": "",
          "type": "uint256"
        }
      ],
      "stateMutability": "view",
      "type": "function"
    },
    {
      "inputs": [],
      "name": "COLLATERAL_RATIO",
      "outputs": [
        {
          "internalType": "uint256",
          "name": "",
          "type": "uint256"
        }
      ],
      "stateMutability": "view",
      "type": "function"
    },
    {
      "inputs": [],
      "name": "LIQUIDATION_BONUS",
      "outputs": [
        {
          "internalType": "uint256",
          "name": "",
          "type": "uint256"
        }
      ],
      "stateMutability": "view",
      "type": "function"
    },
    {
      "inputs": [],
      "name": "LIQUIDATION_THRESHOLD",
      "outputs": [
        {
          "internalType": "uint256",
          "name": "",
          "type": "uint256"
        }
      ],
      "stateMutability": "view",
      "type": "function"
    },
    {
      "inputs": [],
      "name": "USD_DECIMAL",
      "outputs": [
        {
          "internalType": "uint256",
          "name": "",
          "type": "uint256"
        }
      ],
      "stateMutability": "view",
      "type": "function"
    },
    {
      "inputs": [
        {
          "internalType": "uint256",
          "name": "amountToBurn",
          "type": "uint256"
        }
      ],
      "name": "burnEquiAsset",
      "outputs": [],
      "stateMutability": "nonpayable",
      "type": "function"
    },
    {
      "inputs": [
        {
          "internalType": "address",
          "name": "user",
          "type": "address"
        },
        {
          "internalType": "uint256",
          "name": "amountToBurn",
          "type": "uint256"
        }
      ],
      "name": "calculateLiquidationBonus",
      "outputs": [
        {
          "internalType": "uint256",
          "name": "collateralToSeize",
          "type": "uint256"
        },
        {
          "internalType": "uint256",
          "name": "bonusAmount",
          "type": "uint256"
        }
      ],
      "stateMutability": "view",
      "type": "function"
    },
    {
      "inputs": [
        {
          "internalType": "uint256",
          "name": "amountPYUSD",
          "type": "uint256"
        }
      ],
      "name": "depositCollateral",
      "outputs": [],
      "stateMutability": "nonpayable",
      "type": "function"
    },
    {
      "inputs": [],
      "name": "equiAsset",
      "outputs": [
        {
          "internalType": "contract EquiAsset",
          "name": "",
          "type": "address"
        }
      ],
      "stateMutability": "view",
      "type": "function"
    },
    {
      "inputs": [
        {
          "internalType": "address",
          "name": "user",
          "type": "address"
        }
      ],
      "name": "getCollateralRatio",
      "outputs": [
        {
          "internalType": "uint256",
          "name": "",
          "type": "uint256"
        }
      ],
      "stateMutability": "view",
      "type": "function"
    },
    {
      "inputs": [
        {
          "internalType": "address",
          "name": "user",
          "type": "address"
        }
      ],
      "name": "getUserPosition",
      "outputs": [
        {
          "internalType": "uint256",
          "name": "collateral",
          "type": "uint256"
        },
        {
          "internalType": "uint256",
          "name": "debt",
          "type": "uint256"
        },
        {
          "internalType": "uint256",
          "name": "collateralRatio",
          "type": "uint256"
        },
        {
          "internalType": "bool",
          "name": "liquidatable",
          "type": "bool"
        }
      ],
      "stateMutability": "view",
      "type": "function"
    },
    {
      "inputs": [
        {
          "internalType": "address",
          "name": "user",
          "type": "address"
        }
      ],
      "name": "isLiquidatable",
      "outputs": [
        {
          "internalType": "bool",
          "name": "",
          "type": "bool"
        }
      ],
      "stateMutability": "view",
      "type": "function"
    },
    {
      "inputs": [
        {
          "internalType": "address",
          "name": "user",
          "type": "address"
        },
        {
          "internalType": "uint256",
          "name": "amountToBurn",
          "type": "uint256"
        }
      ],
      "name": "liquidate",
      "outputs": [],
      "stateMutability": "nonpayable",
      "type": "function"
    },
    {
      "inputs": [
        {
          "internalType": "uint256",
          "name": "amountToMint",
          "type": "uint256"
        }
      ],
      "name": "mintEquiAsset",
      "outputs": [],
      "stateMutability": "nonpayable",
      "type": "function"
    },
    {
      "inputs": [],
      "name": "oracle",
      "outputs": [
        {
          "internalType": "contract MockOracle",
          "name": "",
          "type": "address"
        }
      ],
      "stateMutability": "view",
      "type": "function"
    },
    {
      "inputs": [],
      "name": "owner",
      "outputs": [
        {
          "internalType": "address",
          "name": "",
          "type": "address"
        }
      ],
      "stateMutability": "view",
      "type": "function"
    },
    {
      "inputs": [],
      "name": "pyUSD",
      "outputs": [
        {
          "internalType": "contract IERC20",
          "name": "",
          "type": "address"
        }
      ],
      "stateMutability": "view",
      "type": "function"
    },
    {
      "inputs": [],
      "name": "renounceOwnership",
      "outputs": [],
      "stateMutability": "nonpayable",
      "type": "function"
    },
    {
      "inputs": [
        {
          "internalType": "address",
          "name": "_asset",
          "type": "address"
        }
      ],
      "name": "setEquiAsset",
      "outputs": [],
      "stateMutability": "nonpayable",
      "type": "function"
    },
    {
      "inputs": [
        {
          "internalType": "address",
          "name": "newOwner",
          "type": "address"
        }
      ],
      "name": "transferOwnership",
      "outputs": [],
      "stateMutability": "nonpayable",
      "type": "function"
    },
    {
      "inputs": [
        {
          "internalType": "address",
          "name": "",
          "type": "address"
        }
      ],
      "name": "userCollateral",
      "outputs": [
        {
          "internalType": "uint256",
          "name": "",
          "type": "uint256"
        }
      ],
      "stateMutability": "view",
      "type": "function"
    },
    {
      "inputs": [
        {
          "internalType": "address",
          "name": "",
          "type": "address"
        }
      ],
      "name": "userDebt",
      "outputs": [
        {
          "internalType": "uint256",
          "name": "",
          "type": "uint256"
        }
      ],
      "stateMutability": "view",
      "type": "function"
    }
  ],
  "transactionHash": "0x9cbe6ae343283423dc30ca558514e9920c042a4f2adc5eec26503f42e2c499d6",
  "args": [
    "0xCaC524BcA292aaade2DF8A05cC58F0a65B1B3bB9",
    "0x8065538941277dE710ad23721B81B85800C0b411"
  ],
  "numDeployments": 1,
  "solcInputHash": "5a4b30d642987bc27a3102425339d60f",
  "bytecode": "0x60806040523480156200001157600080fd5b506040516200149838038062001498833981016040819052620000349162000106565b33806200005b57604051631e4fbdf760e01b81526000600482015260240160405180910390fd5b620000668162000099565b50600180546001600160a01b039384166001600160a01b031991821617909155600380549290931691161790556200013e565b600080546001600160a01b038381166001600160a01b0319831681178455604051919092169283917f8be0079c531659141344cd1fd0a4f28419497f9722a3daafe3b4186f6b6457e09190a35050565b80516001600160a01b03811681146200010157600080fd5b919050565b600080604083850312156200011a57600080fd5b6200012583620000e9565b91506200013560208401620000e9565b90509250929050565b61134a806200014e6000396000f3fe608060405234801561001057600080fd5b50600436106101425760003560e01c8063b69e5c77116100b8578063de7de6271161007c578063de7de627146102b2578063e736e3f7146102c5578063e81e6ce7146102d8578063f2fde38b14610300578063f3e2fd9d14610313578063f69f1e4a1461031d57600080fd5b8063b69e5c7714610254578063bad4a01f14610274578063bcbaf48714610287578063d083cff01461029a578063d9e69a05146102a957600080fd5b8063715018a61161010a578063715018a6146101f85780637dc0d1d0146102025780638da5cb5b1461021557806390a8ae9b14610226578063a11c7bb41461022e578063abee0c3a1461024157600080fd5b8063042e02cf1461014757806315a3ba431461016f57806325dd0aca146101905780633574d4c4146101bb5780635b7c2dad146101c3575b600080fd5b61015a6101553660046111f9565b61033d565b60405190151581526020015b60405180910390f35b61018261017d3660046111f9565b61038a565b604051908152602001610166565b6002546101a3906001600160a01b031681565b6040516001600160a01b039091168152602001610166565b610182600a81565b6101d66101d13660046111f9565b61049e565b6040805194855260208501939093529183015215156060820152608001610166565b6102006104e2565b005b6003546101a3906001600160a01b031681565b6000546001600160a01b03166101a3565b610182609681565b61020061023c3660046111f9565b6104f6565b61020061024f36600461121b565b610520565b6101826102623660046111f9565b60056020526000908152604090205481565b61020061028236600461121b565b6107f8565b610200610295366004611234565b610928565b610182670de0b6b3a764000081565b6101826101f481565b6102006102c036600461121b565b610d7b565b6001546101a3906001600160a01b031681565b6102eb6102e6366004611234565b610fa3565b60408051928352602083019190915201610166565b61020061030e3660046111f9565b611122565b610182620f424081565b61018261032b3660046111f9565b60046020526000908152604090205481565b6001600160a01b038116600090815260056020526040812054810361036457506000919050565b600061036f8361038a565b90506103836096662386f26fc10000611274565b1192915050565b6001600160a01b03811660009081526005602052604081205481036103b25750600019919050565b60035460408051634c6afee560e11b815290516000926001600160a01b0316916398d5fdca9160048083019260209291908290030181865afa1580156103fc573d6000803e3d6000fd5b505050506040513d601f19601f820116820180604052508101906104209190611291565b6001600160a01b03841660009081526005602052604081205491925090670de0b6b3a764000090610452908490611274565b61045c91906112aa565b6001600160a01b038516600090815260046020526040902054909150819061048c90670de0b6b3a7640000611274565b61049691906112aa565b949350505050565b6001600160a01b03811660009081526004602090815260408083205460059092528220549091806104ce8561038a565b91506104d98561033d565b90509193509193565b6104ea611160565b6104f4600061118d565b565b6104fe611160565b600280546001600160a01b0319166001600160a01b0392909216919091179055565b6000811161056b5760405162461bcd60e51b8152602060048201526013602482015272125b9d985b1a5908189d5c9b88185b5bdd5b9d606a1b60448201526064015b60405180910390fd5b336000908152600560205260409020548111156105d65760405162461bcd60e51b815260206004820152602360248201527f44656274206973206c6573736572207468616e20746865206275726e20616d6f6044820152621d5b9d60ea1b6064820152608401610562565b60035460408051634c6afee560e11b815290516000926001600160a01b0316916398d5fdca9160048083019260209291908290030181865afa158015610620573d6000803e3d6000fd5b505050506040513d601f19601f820116820180604052508101906106449190611291565b600254604051632770a7eb60e21b8152336004820152602481018590529192506001600160a01b031690639dc29fac90604401600060405180830381600087803b15801561069157600080fd5b505af11580156106a5573d6000803e3d6000fd5b505033600090815260056020526040812080548694509092506106c99084906112cc565b9091555060009050670de0b6b3a76400006106e48385611274565b6106ee91906112aa565b9050600060646107006101f484611274565b61070a91906112aa565b3360009081526004602052604081208054929350839290919061072e9084906112cc565b909155506000905061074564e8d4a51000836112aa565b60015460405163a9059cbb60e01b8152336004820152602481018390529192506001600160a01b03169063a9059cbb906044016020604051808303816000875af1158015610797573d6000803e3d6000fd5b505050506040513d601f19601f820116820180604052508101906107bb91906112df565b5060405185815233907f2b8d0f3441b858af08efbde4cebfd7d196ab8c029269bc3a414ac8b8038f7eb69060200160405180910390a25050505050565b600081116108395760405162461bcd60e51b815260206004820152600e60248201526d125b9d985b1a5908185b5bdd5b9d60921b6044820152606401610562565b6001546040516323b872dd60e01b8152336004820152306024820152604481018390526001600160a01b03909116906323b872dd906064016020604051808303816000875af1158015610890573d6000803e3d6000fd5b505050506040513d601f19601f820116820180604052508101906108b491906112df565b5060006108c68264e8d4a51000611274565b336000908152600460205260408120805492935083929091906108ea908490611301565b909155505060405181815233907fd7243f6f8212d5188fd054141cf6ea89cfc0d91facb8c3afe2f88a13584801429060200160405180910390a25050565b6001600160a01b0382166109755760405162461bcd60e51b8152602060048201526014602482015273496e76616c69642075736572206164647265737360601b6044820152606401610562565b600081116109b65760405162461bcd60e51b815260206004820152600e60248201526d125b9d985b1a5908185b5bdd5b9d60921b6044820152606401610562565b6109bf8261033d565b610a0b5760405162461bcd60e51b815260206004820152601c60248201527f506f736974696f6e206973206e6f74206c6971756964617461626c65000000006044820152606401610562565b6001600160a01b038216600090815260056020526040902054811115610a735760405162461bcd60e51b815260206004820152601860248201527f416d6f756e7420657863656564732075736572206465627400000000000000006044820152606401610562565b60035460408051634c6afee560e11b815290516000926001600160a01b0316916398d5fdca9160048083019260209291908290030181865afa158015610abd573d6000803e3d6000fd5b505050506040513d601f19601f82011682018060405250810190610ae19190611291565b90506000670de0b6b3a7640000610af88385611274565b610b0291906112aa565b905060006064610b13600a82611301565b610b1d9084611274565b610b2791906112aa565b6001600160a01b038616600090815260046020526040902054909150811115610be657506001600160a01b03841660009081526004602052604081205490610b71600a6064611301565b610b7c836064611274565b610b8691906112aa565b905083610b9b670de0b6b3a764000083611274565b610ba591906112aa565b6001600160a01b038716600090815260056020526040902054909550851115610be4576001600160a01b03861660009081526005602052604090205494505b505b600254604051632770a7eb60e21b8152336004820152602481018690526001600160a01b0390911690639dc29fac90604401600060405180830381600087803b158015610c3257600080fd5b505af1158015610c46573d6000803e3d6000fd5b505050506001600160a01b03851660009081526005602052604081208054869290610c729084906112cc565b90915550506001600160a01b03851660009081526004602052604081208054839290610c9f9084906112cc565b9091555060009050610cb664e8d4a51000836112aa565b60015460405163a9059cbb60e01b8152336004820152602481018390529192506001600160a01b03169063a9059cbb906044016020604051808303816000875af1158015610d08573d6000803e3d6000fd5b505050506040513d601f19601f82011682018060405250810190610d2c91906112df565b50604080518681526020810184905233916001600160a01b038916917f1f0c6615429d1cdae0dfa233abf91d3b31cdbdd82c8081389832a61e1072f1ea910160405180910390a3505050505050565b60008111610dc15760405162461bcd60e51b8152602060048201526013602482015272125b9d985b1a59081b5a5b9d08185b5bdd5b9d606a1b6044820152606401610562565b60035460408051634c6afee560e11b815290516000926001600160a01b0316916398d5fdca9160048083019260209291908290030181865afa158015610e0b573d6000803e3d6000fd5b505050506040513d601f19601f82011682018060405250810190610e2f9190611291565b3360009081526005602052604081205491925090610e4e908490611301565b90506000610e65670de0b6b3a76400006064611274565b6101f4610e728585611274565b610e7c9190611274565b610e8691906112aa565b33600090815260046020526040902054909150811115610ee05760405162461bcd60e51b8152602060048201526015602482015274139bdd08195b9bdd59da0818dbdb1b185d195c985b605a1b6044820152606401610562565b3360009081526005602052604081208054869290610eff908490611301565b90915550506002546040516340c10f1960e01b8152336004820152602481018690526001600160a01b03909116906340c10f1990604401600060405180830381600087803b158015610f5057600080fd5b505af1158015610f64573d6000803e3d6000fd5b50506040518681523392507ff17c8137eb3182d96d376862c461afabe6b05b1407128f2da73a818dea07fe40915060200160405180910390a250505050565b6001600160a01b03821660009081526005602052604081205481908311156110035760405162461bcd60e51b8152602060048201526013602482015272105b5bdd5b9d08195e18d959591cc81919589d606a1b6044820152606401610562565b60035460408051634c6afee560e11b815290516000926001600160a01b0316916398d5fdca9160048083019260209291908290030181865afa15801561104d573d6000803e3d6000fd5b505050506040513d601f19601f820116820180604052508101906110719190611291565b90506000670de0b6b3a76400006110888387611274565b61109291906112aa565b905060646110a1600a82611301565b6110ab9083611274565b6110b591906112aa565b935060646110c4600a83611274565b6110ce91906112aa565b6001600160a01b038716600090815260046020526040902054909350841115611119576001600160a01b038616600090815260046020526040902054935061111681856112cc565b92505b50509250929050565b61112a611160565b6001600160a01b03811661115457604051631e4fbdf760e01b815260006004820152602401610562565b61115d8161118d565b50565b6000546001600160a01b031633146104f45760405163118cdaa760e01b8152336004820152602401610562565b600080546001600160a01b038381166001600160a01b0319831681178455604051919092169283917f8be0079c531659141344cd1fd0a4f28419497f9722a3daafe3b4186f6b6457e09190a35050565b80356001600160a01b03811681146111f457600080fd5b919050565b60006020828403121561120b57600080fd5b611214826111dd565b9392505050565b60006020828403121561122d57600080fd5b5035919050565b6000806040838503121561124757600080fd5b611250836111dd565b946020939093013593505050565b634e487b7160e01b600052601160045260246000fd5b808202811582820484141761128b5761128b61125e565b92915050565b6000602082840312156112a357600080fd5b5051919050565b6000826112c757634e487b7160e01b600052601260045260246000fd5b500490565b8181038181111561128b5761128b61125e565b6000602082840312156112f157600080fd5b8151801515811461121457600080fd5b8082018082111561128b5761128b61125e56fea2646970667358221220bc1f60ee97291772d441b6b59a1836eec8c22d252c1c8a7ebac1668bf1007efc64736f6c63430008140033",
  "devdoc": {
    "errors": {
      "OwnableInvalidOwner(address)": [
        {
          "details": "The owner is not a valid owner account. (eg. `address(0)`)"
        }
      ],
      "OwnableUnauthorizedAccount(address)": [
        {
          "details": "The caller account is not authorized to perform an operation."
        }
      ]
    },
    "kind": "dev",
    "methods": {
      "liquidate(address,uint256)": {
        "params": {
          "amountToBurn": "The amount of eTCS to burn (debt to repay)  How it works: 1. Liquidator must own eTCS tokens (bought from market or minted) 2. Liquidator burns eTCS to pay off user's debt 3. Liquidator receives user's collateral + 10% bonus 4. User's position is partially or fully liquidated",
          "user": "The address of the user to liquidate"
        }
      },
      "owner()": {
        "details": "Returns the address of the current owner."
      },
      "renounceOwnership()": {
        "details": "Leaves the contract without owner. It will not be possible to call `onlyOwner` functions. Can only be called by the current owner. NOTE: Renouncing ownership will leave the contract without an owner, thereby disabling any functionality that is only available to the owner."
      },
      "transferOwnership(address)": {
        "details": "Transfers ownership of the contract to a new account (`newOwner`). Can only be called by the current owner."
      }
    },
    "version": 1
  },
  "userdoc": {
    "kind": "user",
    "methods": {
      "calculateLiquidationBonus(address,uint256)": {
        "notice": "Calculate liquidation bonus for a given amount"
      },
      "getUserPosition(address)": {
        "notice": "Get user's position details"
      },
      "liquidate(address,uint256)": {
        "notice": "Liquidate an undercollateralized position"
      }
    },
    "version": 1
  },
  "storageLayout": {
    "storage": [
      {
        "astId": 8,
        "contract": "contracts/EquiVault.sol:EquiVault",
        "label": "_owner",
        "offset": 0,
        "slot": "0",
        "type": "t_address"
      },
      {
        "astId": 1021,
        "contract": "contracts/EquiVault.sol:EquiVault",
        "label": "pyUSD",
        "offset": 0,
        "slot": "1",
        "type": "t_contract(IERC20)877"
      },
      {
        "astId": 1024,
        "contract": "contracts/EquiVault.sol:EquiVault",
        "label": "equiAsset",
        "offset": 0,
        "slot": "2",
        "type": "t_contract(EquiAsset)1010"
      },
      {
        "astId": 1027,
        "contract": "contracts/EquiVault.sol:EquiVault",
        "label": "oracle",
        "offset": 0,
        "slot": "3",
        "type": "t_contract(MockOracle)1698"
      },
      {
        "astId": 1046,
        "contract": "contracts/EquiVault.sol:EquiVault",
        "label": "userCollateral",
        "offset": 0,
        "slot": "4",
        "type": "t_mapping(t_address,t_uint256)"
      },
      {
        "astId": 1050,
        "contract": "contracts/EquiVault.sol:EquiVault",
        "label": "userDebt",
        "offset": 0,
        "slot": "5",
        "type": "t_mapping(t_address,t_uint256)"
      }
    ],
    "types": {
      "t_address": {
        "encoding": "inplace",
        "label": "address",
        "numberOfBytes": "20"
      },
      "t_contract(EquiAsset)1010": {
        "encoding": "inplace",
        "label": "contract EquiAsset",
        "numberOfBytes": "20"
      },
      "t_contract(IERC20)877": {
        "encoding": "inplace",
        "label": "contract IERC20",
        "numberOfBytes": "20"
      },
      "t_contract(MockOracle)1698": {
        "encoding": "inplace",
        "label": "contract MockOracle",
        "numberOfBytes": "20"
      },
      "t_mapping(t_address,t_uint256)": {
        "encoding": "mapping",
        "key": "t_address",
        "label": "mapping(address => uint256)",
        "numberOfBytes": "32",
        "value": "t_uint256"
      },
      "t_uint256": {
        "encoding": "inplace",
        "label": "uint256",
        "numberOfBytes": "32"
      }
    }
  }
}