{
  "address": "0x5cB49a8fEfaB8F0ac85D84bD5B7A87ccE236C6ef",
  "abi": [
    {
      "inputs": [
        {
          "internalType": "address",
          "name": "_pyUSD",
          "type": "address"
        },
        {
          "internalType": "address",
          "name": "_oracle",
          "type": "address"
        }
      ],
      "stateMutability": "nonpayable",
      "type": "constructor"
    },
    {
      "inputs": [
        {
          "internalType": "address",
          "name": "owner",
          "type": "address"
        }
      ],
      "name": "OwnableInvalidOwner",
      "type": "error"
    },
    {
      "inputs": [
        {
          "internalType": "address",
          "name": "account",
          "type": "address"
        }
      ],
      "name": "OwnableUnauthorizedAccount",
      "type": "error"
    },
    {
      "anonymous": false,
      "inputs": [
        {
          "indexed": true,
          "internalType": "address",
          "name": "user",
          "type": "address"
        },
        {
          "indexed": false,
          "internalType": "uint256",
          "name": "amount",
          "type": "uint256"
        }
      ],
      "name": "CollateralDeposited",
      "type": "event"
    },
    {
      "anonymous": false,
      "inputs": [
        {
          "indexed": true,
          "internalType": "address",
          "name": "user",
          "type": "address"
        },
        {
          "indexed": false,
          "internalType": "uint256",
          "name": "amount",
          "type": "uint256"
        }
      ],
      "name": "EquiAssetBurned",
      "type": "event"
    },
    {
      "anonymous": false,
      "inputs": [
        {
          "indexed": true,
          "internalType": "address",
          "name": "user",
          "type": "address"
        },
        {
          "indexed": false,
          "internalType": "uint256",
          "name": "amount",
          "type": "uint256"
        }
      ],
      "name": "EquiAssetMinted",
      "type": "event"
    },
    {
      "anonymous": false,
      "inputs": [
        {
          "indexed": true,
          "internalType": "address",
          "name": "user",
          "type": "address"
        },
        {
          "indexed": true,
          "internalType": "address",
          "name": "liquidator",
          "type": "address"
        },
        {
          "indexed": false,
          "internalType": "uint256",
          "name": "debtRepaid",
          "type": "uint256"
        },
        {
          "indexed": false,
          "internalType": "uint256",
          "name": "collateralSeized",
          "type": "uint256"
        }
      ],
      "name": "Liquidated",
      "type": "event"
    },
    {
      "anonymous": false,
      "inputs": [
        {
          "indexed": true,
          "internalType": "address",
          "name": "previousOwner",
          "type": "address"
        },
        {
          "indexed": true,
          "internalType": "address",
          "name": "newOwner",
          "type": "address"
        }
      ],
      "name": "OwnershipTransferred",
      "type": "event"
    },
    {
      "inputs": [],
      "name": "ASSET_DECIMAL",
      "outputs": [
        {
          "internalType": "uint256",
          "name": "",
          "type": "uint256"
        }
      ],
      "stateMutability": "view",
      "type": "function"
    },
    {
      "inputs": [],
      "name": "COLLATERAL_RATIO",
      "outputs": [
        {
          "internalType": "uint256",
          "name": "",
          "type": "uint256"
        }
      ],
      "stateMutability": "view",
      "type": "function"
    },
    {
      "inputs": [],
      "name": "LIQUIDATION_THRESHOLD",
      "outputs": [
        {
          "internalType": "uint256",
          "name": "",
          "type": "uint256"
        }
      ],
      "stateMutability": "view",
      "type": "function"
    },
    {
      "inputs": [],
      "name": "USD_DECIMAL",
      "outputs": [
        {
          "internalType": "uint256",
          "name": "",
          "type": "uint256"
        }
      ],
      "stateMutability": "view",
      "type": "function"
    },
    {
      "inputs": [
        {
          "internalType": "uint256",
          "name": "amountToBurn",
          "type": "uint256"
        }
      ],
      "name": "burnEquiAsset",
      "outputs": [],
      "stateMutability": "nonpayable",
      "type": "function"
    },
    {
      "inputs": [
        {
          "internalType": "uint256",
          "name": "amountPYUSD",
          "type": "uint256"
        }
      ],
      "name": "depositCollateral",
      "outputs": [],
      "stateMutability": "nonpayable",
      "type": "function"
    },
    {
      "inputs": [],
      "name": "equiAsset",
      "outputs": [
        {
          "internalType": "contract EquiAsset",
          "name": "",
          "type": "address"
        }
      ],
      "stateMutability": "view",
      "type": "function"
    },
    {
      "inputs": [
        {
          "internalType": "address",
          "name": "user",
          "type": "address"
        }
      ],
      "name": "getCollateralRatio",
      "outputs": [
        {
          "internalType": "uint256",
          "name": "",
          "type": "uint256"
        }
      ],
      "stateMutability": "view",
      "type": "function"
    },
    {
      "inputs": [
        {
          "internalType": "address",
          "name": "user",
          "type": "address"
        }
      ],
      "name": "getUserPosition",
      "outputs": [
        {
          "internalType": "uint256",
          "name": "collateral",
          "type": "uint256"
        },
        {
          "internalType": "uint256",
          "name": "debt",
          "type": "uint256"
        },
        {
          "internalType": "uint256",
          "name": "collateralRatio",
          "type": "uint256"
        },
        {
          "internalType": "bool",
          "name": "liquidatable",
          "type": "bool"
        }
      ],
      "stateMutability": "view",
      "type": "function"
    },
    {
      "inputs": [
        {
          "internalType": "address",
          "name": "user",
          "type": "address"
        }
      ],
      "name": "isLiquidatable",
      "outputs": [
        {
          "internalType": "bool",
          "name": "",
          "type": "bool"
        }
      ],
      "stateMutability": "view",
      "type": "function"
    },
    {
      "inputs": [
        {
          "internalType": "address",
          "name": "user",
          "type": "address"
        }
      ],
      "name": "liquidate",
      "outputs": [],
      "stateMutability": "nonpayable",
      "type": "function"
    },
    {
      "inputs": [
        {
          "internalType": "uint256",
          "name": "amountToMint",
          "type": "uint256"
        }
      ],
      "name": "mintEquiAsset",
      "outputs": [],
      "stateMutability": "nonpayable",
      "type": "function"
    },
    {
      "inputs": [],
      "name": "oracle",
      "outputs": [
        {
          "internalType": "contract MockOracle",
          "name": "",
          "type": "address"
        }
      ],
      "stateMutability": "view",
      "type": "function"
    },
    {
      "inputs": [],
      "name": "owner",
      "outputs": [
        {
          "internalType": "address",
          "name": "",
          "type": "address"
        }
      ],
      "stateMutability": "view",
      "type": "function"
    },
    {
      "inputs": [],
      "name": "pyUSD",
      "outputs": [
        {
          "internalType": "contract IERC20",
          "name": "",
          "type": "address"
        }
      ],
      "stateMutability": "view",
      "type": "function"
    },
    {
      "inputs": [],
      "name": "renounceOwnership",
      "outputs": [],
      "stateMutability": "nonpayable",
      "type": "function"
    },
    {
      "inputs": [
        {
          "internalType": "address",
          "name": "_asset",
          "type": "address"
        }
      ],
      "name": "setEquiAsset",
      "outputs": [],
      "stateMutability": "nonpayable",
      "type": "function"
    },
    {
      "inputs": [
        {
          "internalType": "address",
          "name": "newOwner",
          "type": "address"
        }
      ],
      "name": "transferOwnership",
      "outputs": [],
      "stateMutability": "nonpayable",
      "type": "function"
    },
    {
      "inputs": [
        {
          "internalType": "address",
          "name": "",
          "type": "address"
        }
      ],
      "name": "userCollateral",
      "outputs": [
        {
          "internalType": "uint256",
          "name": "",
          "type": "uint256"
        }
      ],
      "stateMutability": "view",
      "type": "function"
    },
    {
      "inputs": [
        {
          "internalType": "address",
          "name": "",
          "type": "address"
        }
      ],
      "name": "userDebt",
      "outputs": [
        {
          "internalType": "uint256",
          "name": "",
          "type": "uint256"
        }
      ],
      "stateMutability": "view",
      "type": "function"
    }
  ],
  "transactionHash": "0x4206f96b06cc9d03aaa533f6bcc4c34c56f1a880f91444adc976ec80ccf90be0",
  "args": [
    "0xCaC524BcA292aaade2DF8A05cC58F0a65B1B3bB9",
    "0x30AfC6D19Be03456f8b94B1936C9c27B891Bc2Fb"
  ],
  "numDeployments": 1,
  "solcInputHash": "84fbbee9a6b0450623bfe5d3a66a1cfb",
  "bytecode": "0x608060405234801561001057600080fd5b5060405161116c38038061116c83398101604081905261002f916100fc565b338061005557604051631e4fbdf760e01b81526000600482015260240160405180910390fd5b61005e81610090565b50600180546001600160a01b039384166001600160a01b0319918216179091556003805492909316911617905561012f565b600080546001600160a01b038381166001600160a01b0319831681178455604051919092169283917f8be0079c531659141344cd1fd0a4f28419497f9722a3daafe3b4186f6b6457e09190a35050565b80516001600160a01b03811681146100f757600080fd5b919050565b6000806040838503121561010f57600080fd5b610118836100e0565b9150610126602084016100e0565b90509250929050565b61102e8061013e6000396000f3fe608060405234801561001057600080fd5b506004361061012c5760003560e01c8063abee0c3a116100ad578063de7de62711610071578063de7de62714610294578063e736e3f7146102a7578063f2fde38b146102ba578063f3e2fd9d146102cd578063f69f1e4a146102d757600080fd5b8063abee0c3a14610236578063b69e5c7714610249578063bad4a01f14610269578063d083cff01461027c578063d9e69a051461028b57600080fd5b8063715018a6116100f4578063715018a6146101ef5780637dc0d1d0146101f75780638da5cb5b1461020a57806390a8ae9b1461021b578063a11c7bb41461022357600080fd5b8063042e02cf1461013157806315a3ba431461015957806325dd0aca1461017a5780632f865568146101a55780635b7c2dad146101ba575b600080fd5b61014461013f366004610ef9565b6102f7565b60405190151581526020015b60405180910390f35b61016c610167366004610ef9565b610344565b604051908152602001610150565b60025461018d906001600160a01b031681565b6040516001600160a01b039091168152602001610150565b6101b86101b3366004610ef9565b610458565b005b6101cd6101c8366004610ef9565b610791565b6040805194855260208501939093529183015215156060820152608001610150565b6101b86107d5565b60035461018d906001600160a01b031681565b6000546001600160a01b031661018d565b61016c609681565b6101b8610231366004610ef9565b6107e9565b6101b8610244366004610f29565b610813565b61016c610257366004610ef9565b60056020526000908152604090205481565b6101b8610277366004610f29565b610ae6565b61016c670de0b6b3a764000081565b61016c6101f481565b6101b86102a2366004610f29565b610c16565b60015461018d906001600160a01b031681565b6101b86102c8366004610ef9565b610e3e565b61016c620f424081565b61016c6102e5366004610ef9565b60046020526000908152604090205481565b6001600160a01b038116600090815260056020526040812054810361031e57506000919050565b600061032983610344565b905061033d6096662386f26fc10000610f58565b1192915050565b6001600160a01b038116600090815260056020526040812054810361036c5750600019919050565b60035460408051634c6afee560e11b815290516000926001600160a01b0316916398d5fdca9160048083019260209291908290030181865afa1580156103b6573d6000803e3d6000fd5b505050506040513d601f19601f820116820180604052508101906103da9190610f75565b6001600160a01b03841660009081526005602052604081205491925090670de0b6b3a76400009061040c908490610f58565b6104169190610f8e565b6001600160a01b038516600090815260046020526040902054909150819061044690670de0b6b3a7640000610f58565b6104509190610f8e565b949350505050565b610461816102f7565b6104b25760405162461bcd60e51b815260206004820152601860248201527f55736572206973206e6f74206c6971756964617461626c65000000000000000060448201526064015b60405180910390fd5b6001600160a01b03811660009081526005602052604090205461050e5760405162461bcd60e51b81526020600482015260146024820152734e6f206465627420746f206c697175696461746560601b60448201526064016104a9565b60035460408051634c6afee560e11b815290516000926001600160a01b0316916398d5fdca9160048083019260209291908290030181865afa158015610558573d6000803e3d6000fd5b505050506040513d601f19601f8201168201806040525081019061057c9190610f75565b6001600160a01b038316600090815260056020526040812054919250670de0b6b3a76400006105ab8484610f58565b6105b59190610f8e565b905060006105c864e8d4a5100083610f8e565b6001546040516323b872dd60e01b8152336004820152306024820152604481018390529192506001600160a01b0316906323b872dd906064016020604051808303816000875af1158015610620573d6000803e3d6000fd5b505050506040513d601f19601f820116820180604052508101906106449190610fb0565b506001600160a01b0385166000908152600460205260408120549061066e64e8d4a5100083610f8e565b9050600081116106b05760405162461bcd60e51b815260206004820152600d60248201526c139bc818dbdb1b185d195c985b609a1b60448201526064016104a9565b60015460405163a9059cbb60e01b8152336004820152602481018390526001600160a01b039091169063a9059cbb906044016020604051808303816000875af1158015610701573d6000803e3d6000fd5b505050506040513d601f19601f820116820180604052508101906107259190610fb0565b506001600160a01b0387166000818152600460209081526040808320839055600582528083209290925581518881529081018590523392917f1f0c6615429d1cdae0dfa233abf91d3b31cdbdd82c8081389832a61e1072f1ea910160405180910390a350505050505050565b6001600160a01b03811660009081526004602090815260408083205460059092528220549091806107c185610344565b91506107cc856102f7565b90509193509193565b6107dd610e7c565b6107e76000610ea9565b565b6107f1610e7c565b600280546001600160a01b0319166001600160a01b0392909216919091179055565b600081116108595760405162461bcd60e51b8152602060048201526013602482015272125b9d985b1a5908189d5c9b88185b5bdd5b9d606a1b60448201526064016104a9565b336000908152600560205260409020548111156108c45760405162461bcd60e51b815260206004820152602360248201527f44656274206973206c6573736572207468616e20746865206275726e20616d6f6044820152621d5b9d60ea1b60648201526084016104a9565b60035460408051634c6afee560e11b815290516000926001600160a01b0316916398d5fdca9160048083019260209291908290030181865afa15801561090e573d6000803e3d6000fd5b505050506040513d601f19601f820116820180604052508101906109329190610f75565b600254604051632770a7eb60e21b8152336004820152602481018590529192506001600160a01b031690639dc29fac90604401600060405180830381600087803b15801561097f57600080fd5b505af1158015610993573d6000803e3d6000fd5b505033600090815260056020526040812080548694509092506109b7908490610fd2565b9091555060009050670de0b6b3a76400006109d28385610f58565b6109dc9190610f8e565b9050600060646109ee6101f484610f58565b6109f89190610f8e565b33600090815260046020526040812080549293508392909190610a1c908490610fd2565b9091555060009050610a3364e8d4a5100083610f8e565b60015460405163a9059cbb60e01b8152336004820152602481018390529192506001600160a01b03169063a9059cbb906044016020604051808303816000875af1158015610a85573d6000803e3d6000fd5b505050506040513d601f19601f82011682018060405250810190610aa99190610fb0565b5060405185815233907f2b8d0f3441b858af08efbde4cebfd7d196ab8c029269bc3a414ac8b8038f7eb69060200160405180910390a25050505050565b60008111610b275760405162461bcd60e51b815260206004820152600e60248201526d125b9d985b1a5908185b5bdd5b9d60921b60448201526064016104a9565b6001546040516323b872dd60e01b8152336004820152306024820152604481018390526001600160a01b03909116906323b872dd906064016020604051808303816000875af1158015610b7e573d6000803e3d6000fd5b505050506040513d601f19601f82011682018060405250810190610ba29190610fb0565b506000610bb48264e8d4a51000610f58565b33600090815260046020526040812080549293508392909190610bd8908490610fe5565b909155505060405181815233907fd7243f6f8212d5188fd054141cf6ea89cfc0d91facb8c3afe2f88a13584801429060200160405180910390a25050565b60008111610c5c5760405162461bcd60e51b8152602060048201526013602482015272125b9d985b1a59081b5a5b9d08185b5bdd5b9d606a1b60448201526064016104a9565b60035460408051634c6afee560e11b815290516000926001600160a01b0316916398d5fdca9160048083019260209291908290030181865afa158015610ca6573d6000803e3d6000fd5b505050506040513d601f19601f82011682018060405250810190610cca9190610f75565b3360009081526005602052604081205491925090610ce9908490610fe5565b90506000610d00670de0b6b3a76400006064610f58565b6101f4610d0d8585610f58565b610d179190610f58565b610d219190610f8e565b33600090815260046020526040902054909150811115610d7b5760405162461bcd60e51b8152602060048201526015602482015274139bdd08195b9bdd59da0818dbdb1b185d195c985b605a1b60448201526064016104a9565b3360009081526005602052604081208054869290610d9a908490610fe5565b90915550506002546040516340c10f1960e01b8152336004820152602481018690526001600160a01b03909116906340c10f1990604401600060405180830381600087803b158015610deb57600080fd5b505af1158015610dff573d6000803e3d6000fd5b50506040518681523392507ff17c8137eb3182d96d376862c461afabe6b05b1407128f2da73a818dea07fe40915060200160405180910390a250505050565b610e46610e7c565b6001600160a01b038116610e7057604051631e4fbdf760e01b8152600060048201526024016104a9565b610e7981610ea9565b50565b6000546001600160a01b031633146107e75760405163118cdaa760e01b81523360048201526024016104a9565b600080546001600160a01b038381166001600160a01b0319831681178455604051919092169283917f8be0079c531659141344cd1fd0a4f28419497f9722a3daafe3b4186f6b6457e09190a35050565b600060208284031215610f0b57600080fd5b81356001600160a01b0381168114610f2257600080fd5b9392505050565b600060208284031215610f3b57600080fd5b5035919050565b634e487b7160e01b600052601160045260246000fd5b8082028115828204841417610f6f57610f6f610f42565b92915050565b600060208284031215610f8757600080fd5b5051919050565b600082610fab57634e487b7160e01b600052601260045260246000fd5b500490565b600060208284031215610fc257600080fd5b81518015158114610f2257600080fd5b81810381811115610f6f57610f6f610f42565b80820180821115610f6f57610f6f610f4256fea2646970667358221220c0375f45cd41e1de94305c0e64d69aa79c7348a03455d173e6caf57513a8881664736f6c63430008140033",
  "devdoc": {
    "errors": {
      "OwnableInvalidOwner(address)": [
        {
          "details": "The owner is not a valid owner account. (eg. `address(0)`)"
        }
      ],
      "OwnableUnauthorizedAccount(address)": [
        {
          "details": "The caller account is not authorized to perform an operation."
        }
      ]
    },
    "kind": "dev",
    "methods": {
      "owner()": {
        "details": "Returns the address of the current owner."
      },
      "renounceOwnership()": {
        "details": "Leaves the contract without owner. It will not be possible to call `onlyOwner` functions. Can only be called by the current owner. NOTE: Renouncing ownership will leave the contract without an owner, thereby disabling any functionality that is only available to the owner."
      },
      "transferOwnership(address)": {
        "details": "Transfers ownership of the contract to a new account (`newOwner`). Can only be called by the current owner."
      }
    },
    "version": 1
  },
  "userdoc": {
    "kind": "user",
    "methods": {
      "getUserPosition(address)": {
        "notice": "Get user's position details"
      }
    },
    "version": 1
  },
  "storageLayout": {
    "storage": [
      {
        "astId": 8,
        "contract": "contracts/EquiVault.sol:EquiVault",
        "label": "_owner",
        "offset": 0,
        "slot": "0",
        "type": "t_address"
      },
      {
        "astId": 1021,
        "contract": "contracts/EquiVault.sol:EquiVault",
        "label": "pyUSD",
        "offset": 0,
        "slot": "1",
        "type": "t_contract(IERC20)877"
      },
      {
        "astId": 1024,
        "contract": "contracts/EquiVault.sol:EquiVault",
        "label": "equiAsset",
        "offset": 0,
        "slot": "2",
        "type": "t_contract(EquiAsset)1010"
      },
      {
        "astId": 1027,
        "contract": "contracts/EquiVault.sol:EquiVault",
        "label": "oracle",
        "offset": 0,
        "slot": "3",
        "type": "t_contract(MockOracle)1568"
      },
      {
        "astId": 1043,
        "contract": "contracts/EquiVault.sol:EquiVault",
        "label": "userCollateral",
        "offset": 0,
        "slot": "4",
        "type": "t_mapping(t_address,t_uint256)"
      },
      {
        "astId": 1047,
        "contract": "contracts/EquiVault.sol:EquiVault",
        "label": "userDebt",
        "offset": 0,
        "slot": "5",
        "type": "t_mapping(t_address,t_uint256)"
      }
    ],
    "types": {
      "t_address": {
        "encoding": "inplace",
        "label": "address",
        "numberOfBytes": "20"
      },
      "t_contract(EquiAsset)1010": {
        "encoding": "inplace",
        "label": "contract EquiAsset",
        "numberOfBytes": "20"
      },
      "t_contract(IERC20)877": {
        "encoding": "inplace",
        "label": "contract IERC20",
        "numberOfBytes": "20"
      },
      "t_contract(MockOracle)1568": {
        "encoding": "inplace",
        "label": "contract MockOracle",
        "numberOfBytes": "20"
      },
      "t_mapping(t_address,t_uint256)": {
        "encoding": "mapping",
        "key": "t_address",
        "label": "mapping(address => uint256)",
        "numberOfBytes": "32",
        "value": "t_uint256"
      },
      "t_uint256": {
        "encoding": "inplace",
        "label": "uint256",
        "numberOfBytes": "32"
      }
    }
  }
}