{
  "address": "0x054EA4a22CD6e9ef5024dd9AB5564BBC623012a4",
  "abi": [
    {
      "inputs": [
        {
          "internalType": "address",
          "name": "_pyUSD",
          "type": "address"
        },
        {
          "internalType": "address",
          "name": "_equiAsset",
          "type": "address"
        },
        {
          "internalType": "address",
          "name": "_oracle",
          "type": "address"
        }
      ],
      "stateMutability": "nonpayable",
      "type": "constructor"
    },
    {
      "inputs": [
        {
          "internalType": "address",
          "name": "owner",
          "type": "address"
        }
      ],
      "name": "OwnableInvalidOwner",
      "type": "error"
    },
    {
      "inputs": [
        {
          "internalType": "address",
          "name": "account",
          "type": "address"
        }
      ],
      "name": "OwnableUnauthorizedAccount",
      "type": "error"
    },
    {
      "anonymous": false,
      "inputs": [
        {
          "indexed": true,
          "internalType": "address",
          "name": "previousOwner",
          "type": "address"
        },
        {
          "indexed": true,
          "internalType": "address",
          "name": "newOwner",
          "type": "address"
        }
      ],
      "name": "OwnershipTransferred",
      "type": "event"
    },
    {
      "inputs": [],
      "name": "ASSET_DECIMALS",
      "outputs": [
        {
          "internalType": "uint256",
          "name": "",
          "type": "uint256"
        }
      ],
      "stateMutability": "view",
      "type": "function"
    },
    {
      "inputs": [],
      "name": "USD_DECIMALS",
      "outputs": [
        {
          "internalType": "uint256",
          "name": "",
          "type": "uint256"
        }
      ],
      "stateMutability": "view",
      "type": "function"
    },
    {
      "inputs": [
        {
          "internalType": "uint256",
          "name": "amountPYUSD",
          "type": "uint256"
        },
        {
          "internalType": "uint256",
          "name": "amountAsset",
          "type": "uint256"
        }
      ],
      "name": "addLiquidity",
      "outputs": [],
      "stateMutability": "nonpayable",
      "type": "function"
    },
    {
      "inputs": [],
      "name": "assetBalance",
      "outputs": [
        {
          "internalType": "uint256",
          "name": "",
          "type": "uint256"
        }
      ],
      "stateMutability": "view",
      "type": "function"
    },
    {
      "inputs": [],
      "name": "equiAsset",
      "outputs": [
        {
          "internalType": "contract IERC20",
          "name": "",
          "type": "address"
        }
      ],
      "stateMutability": "view",
      "type": "function"
    },
    {
      "inputs": [],
      "name": "getOraclePrice",
      "outputs": [
        {
          "internalType": "uint256",
          "name": "",
          "type": "uint256"
        }
      ],
      "stateMutability": "view",
      "type": "function"
    },
    {
      "inputs": [],
      "name": "getReserves",
      "outputs": [
        {
          "internalType": "uint256",
          "name": "",
          "type": "uint256"
        },
        {
          "internalType": "uint256",
          "name": "",
          "type": "uint256"
        }
      ],
      "stateMutability": "view",
      "type": "function"
    },
    {
      "inputs": [],
      "name": "oracle",
      "outputs": [
        {
          "internalType": "contract PythOracle",
          "name": "",
          "type": "address"
        }
      ],
      "stateMutability": "view",
      "type": "function"
    },
    {
      "inputs": [],
      "name": "owner",
      "outputs": [
        {
          "internalType": "address",
          "name": "",
          "type": "address"
        }
      ],
      "stateMutability": "view",
      "type": "function"
    },
    {
      "inputs": [],
      "name": "pyUSD",
      "outputs": [
        {
          "internalType": "contract IERC20",
          "name": "",
          "type": "address"
        }
      ],
      "stateMutability": "view",
      "type": "function"
    },
    {
      "inputs": [],
      "name": "pyUSDBalance",
      "outputs": [
        {
          "internalType": "uint256",
          "name": "",
          "type": "uint256"
        }
      ],
      "stateMutability": "view",
      "type": "function"
    },
    {
      "inputs": [
        {
          "internalType": "uint256",
          "name": "pyUSDOut",
          "type": "uint256"
        },
        {
          "internalType": "uint256",
          "name": "assetOut",
          "type": "uint256"
        }
      ],
      "name": "removeLiquidity",
      "outputs": [],
      "stateMutability": "nonpayable",
      "type": "function"
    },
    {
      "inputs": [],
      "name": "renounceOwnership",
      "outputs": [],
      "stateMutability": "nonpayable",
      "type": "function"
    },
    {
      "inputs": [
        {
          "internalType": "uint256",
          "name": "amountAssetIn",
          "type": "uint256"
        }
      ],
      "name": "swapAssetForPYUSD",
      "outputs": [],
      "stateMutability": "nonpayable",
      "type": "function"
    },
    {
      "inputs": [
        {
          "internalType": "uint256",
          "name": "amountPYUSDIn",
          "type": "uint256"
        }
      ],
      "name": "swapPYUSDForAsset",
      "outputs": [],
      "stateMutability": "nonpayable",
      "type": "function"
    },
    {
      "inputs": [
        {
          "internalType": "address",
          "name": "newOwner",
          "type": "address"
        }
      ],
      "name": "transferOwnership",
      "outputs": [],
      "stateMutability": "nonpayable",
      "type": "function"
    }
  ],
  "transactionHash": "0xeb15c84b33de48b4c09ff8d9ad170836e13839e61f25b0fefc3c34f1bcc2eb25",
  "args": [
    "0xCaC524BcA292aaade2DF8A05cC58F0a65B1B3bB9",
    "0x52ffC282dd621f18edD1aeba5557bE839d0793f9",
    "0x418651ffC70fEE535299b9d62153638643d31fa3"
  ],
  "numDeployments": 1,
  "solcInputHash": "623abb88719a7cd9fe1ba5505ce65d29",
  "bytecode": "0x608060405234801561001057600080fd5b50604051610e0a380380610e0a83398101604081905261002f9161010d565b338061005557604051631e4fbdf760e01b81526000600482015260240160405180910390fd5b61005e816100a1565b50600180546001600160a01b039485166001600160a01b031991821617909155600280549385169382169390931790925560038054919093169116179055610150565b600080546001600160a01b038381166001600160a01b0319831681178455604051919092169283917f8be0079c531659141344cd1fd0a4f28419497f9722a3daafe3b4186f6b6457e09190a35050565b80516001600160a01b038116811461010857600080fd5b919050565b60008060006060848603121561012257600080fd5b61012b846100f1565b9250610139602085016100f1565b9150610147604085016100f1565b90509250925092565b610cab8061015f6000396000f3fe608060405234801561001057600080fd5b50600436106101005760003560e01c80638da5cb5b11610097578063e3094b1411610066578063e3094b14146101e9578063e736e3f7146101fc578063f2fde38b1461020f578063f4db89841461022257600080fd5b80638da5cb5b146101a95780639cd441da146101ba5780639d7de6b3146101cd578063c66f2455146101e057600080fd5b8063715018a6116100d3578063715018a61461017157806373902c8e1461017b578063796da7af1461018e5780637dc0d1d01461019657600080fd5b80630902f1ac1461010557806325dd0aca146101255780632f6ee695146101505780633010bbd614610168575b600080fd5b600454600554604080519283526020830191909152015b60405180910390f35b600254610138906001600160a01b031681565b6040516001600160a01b03909116815260200161011c565b61015a620f424081565b60405190815260200161011c565b61015a60045481565b610179610231565b005b610179610189366004610b30565b610245565b61015a6104a8565b600354610138906001600160a01b031681565b6000546001600160a01b0316610138565b6101796101c8366004610b49565b61051b565b6101796101db366004610b49565b61069b565b61015a60055481565b6101796101f7366004610b30565b610818565b600154610138906001600160a01b031681565b61017961021d366004610b6b565b610a75565b61015a670de0b6b3a764000081565b610239610ab3565b6102436000610ae0565b565b6000811161028b5760405162461bcd60e51b815260206004820152600e60248201526d125b9d985b1a5908185b5bdd5b9d60921b60448201526064015b60405180910390fd5b60035460408051634c6afee560e11b815290516000926001600160a01b0316916398d5fdca9160048083019260209291908290030181865afa1580156102d5573d6000803e3d6000fd5b505050506040513d601f19601f820116820180604052508101906102f99190610b9b565b9050600061030f670de0b6b3a764000080610bca565b620f424061031d8486610bca565b6103279190610bca565b6103319190610be7565b90506004548111156103855760405162461bcd60e51b815260206004820152601b60248201527f496e73756666696369656e7420706f6f6c206c697175696469747900000000006044820152606401610282565b6002546040516323b872dd60e01b81526001600160a01b03909116906323b872dd906103b990339030908890600401610c09565b6020604051808303816000875af11580156103d8573d6000803e3d6000fd5b505050506040513d601f19601f820116820180604052508101906103fc9190610c2d565b5060015460405163a9059cbb60e01b8152336004820152602481018390526001600160a01b039091169063a9059cbb906044016020604051808303816000875af115801561044e573d6000803e3d6000fd5b505050506040513d601f19601f820116820180604052508101906104729190610c2d565b5082600560008282546104859190610c4f565b92505081905550806004600082825461049e9190610c62565b9091555050505050565b60035460408051634c6afee560e11b815290516000926001600160a01b0316916398d5fdca9160048083019260209291908290030181865afa1580156104f2573d6000803e3d6000fd5b505050506040513d601f19601f820116820180604052508101906105169190610b9b565b905090565b60008211801561052b5750600081115b6105775760405162461bcd60e51b815260206004820152601960248201527f496e76616c6964206c697175696469747920616d6f756e7473000000000000006044820152606401610282565b6001546040516323b872dd60e01b81526001600160a01b03909116906323b872dd906105ab90339030908790600401610c09565b6020604051808303816000875af11580156105ca573d6000803e3d6000fd5b505050506040513d601f19601f820116820180604052508101906105ee9190610c2d565b506002546040516323b872dd60e01b81526001600160a01b03909116906323b872dd9061062390339030908690600401610c09565b6020604051808303816000875af1158015610642573d6000803e3d6000fd5b505050506040513d601f19601f820116820180604052508101906106669190610c2d565b5081600460008282546106799190610c4f565b9250508190555080600560008282546106929190610c4f565b90915550505050565b6106a3610ab3565b60045482111580156106b757506005548111155b6106f85760405162461bcd60e51b8152602060048201526012602482015271125b9d985b1a59081dda5d1a191c985dd85b60721b6044820152606401610282565b816004600082825461070a9190610c62565b9250508190555080600560008282546107239190610c62565b909155505060015460405163a9059cbb60e01b8152336004820152602481018490526001600160a01b039091169063a9059cbb906044016020604051808303816000875af1158015610779573d6000803e3d6000fd5b505050506040513d601f19601f8201168201806040525081019061079d9190610c2d565b5060025460405163a9059cbb60e01b8152336004820152602481018390526001600160a01b039091169063a9059cbb906044016020604051808303816000875af11580156107ef573d6000803e3d6000fd5b505050506040513d601f19601f820116820180604052508101906108139190610c2d565b505050565b600081116108595760405162461bcd60e51b815260206004820152600e60248201526d125b9d985b1a5908185b5bdd5b9d60921b6044820152606401610282565b60035460408051634c6afee560e11b815290516000926001600160a01b0316916398d5fdca9160048083019260209291908290030181865afa1580156108a3573d6000803e3d6000fd5b505050506040513d601f19601f820116820180604052508101906108c79190610b9b565b90506000620f4240826108e2670de0b6b3a764000086610bca565b6108f490670de0b6b3a7640000610bca565b6108fe9190610be7565b6109089190610be7565b905060055481111561095c5760405162461bcd60e51b815260206004820152601b60248201527f496e73756666696369656e7420706f6f6c206c697175696469747900000000006044820152606401610282565b6001546040516323b872dd60e01b81526001600160a01b03909116906323b872dd9061099090339030908890600401610c09565b6020604051808303816000875af11580156109af573d6000803e3d6000fd5b505050506040513d601f19601f820116820180604052508101906109d39190610c2d565b5060025460405163a9059cbb60e01b8152336004820152602481018390526001600160a01b039091169063a9059cbb906044016020604051808303816000875af1158015610a25573d6000803e3d6000fd5b505050506040513d601f19601f82011682018060405250810190610a499190610c2d565b508260046000828254610a5c9190610c4f565b92505081905550806005600082825461049e9190610c62565b610a7d610ab3565b6001600160a01b038116610aa757604051631e4fbdf760e01b815260006004820152602401610282565b610ab081610ae0565b50565b6000546001600160a01b031633146102435760405163118cdaa760e01b8152336004820152602401610282565b600080546001600160a01b038381166001600160a01b0319831681178455604051919092169283917f8be0079c531659141344cd1fd0a4f28419497f9722a3daafe3b4186f6b6457e09190a35050565b600060208284031215610b4257600080fd5b5035919050565b60008060408385031215610b5c57600080fd5b50508035926020909101359150565b600060208284031215610b7d57600080fd5b81356001600160a01b0381168114610b9457600080fd5b9392505050565b600060208284031215610bad57600080fd5b5051919050565b634e487b7160e01b600052601160045260246000fd5b8082028115828204841417610be157610be1610bb4565b92915050565b600082610c0457634e487b7160e01b600052601260045260246000fd5b500490565b6001600160a01b039384168152919092166020820152604081019190915260600190565b600060208284031215610c3f57600080fd5b81518015158114610b9457600080fd5b80820180821115610be157610be1610bb4565b81810381811115610be157610be1610bb456fea2646970667358221220c7850b9995212f0e2d31b36d77ac1f4fa92533725b3952aa4a37ad717aa7d9e564736f6c63430008140033",
  "devdoc": {
    "errors": {
      "OwnableInvalidOwner(address)": [
        {
          "details": "The owner is not a valid owner account. (eg. `address(0)`)"
        }
      ],
      "OwnableUnauthorizedAccount(address)": [
        {
          "details": "The caller account is not authorized to perform an operation."
        }
      ]
    },
    "kind": "dev",
    "methods": {
      "owner()": {
        "details": "Returns the address of the current owner."
      },
      "renounceOwnership()": {
        "details": "Leaves the contract without owner. It will not be possible to call `onlyOwner` functions. Can only be called by the current owner. NOTE: Renouncing ownership will leave the contract without an owner, thereby disabling any functionality that is only available to the owner."
      },
      "transferOwnership(address)": {
        "details": "Transfers ownership of the contract to a new account (`newOwner`). Can only be called by the current owner."
      }
    },
    "version": 1
  },
  "userdoc": {
    "kind": "user",
    "methods": {},
    "version": 1
  },
  "storageLayout": {
    "storage": [
      {
        "astId": 8,
        "contract": "contracts/EquiPool.sol:EquiPool",
        "label": "_owner",
        "offset": 0,
        "slot": "0",
        "type": "t_address"
      },
      {
        "astId": 1261,
        "contract": "contracts/EquiPool.sol:EquiPool",
        "label": "pyUSD",
        "offset": 0,
        "slot": "1",
        "type": "t_contract(IERC20)877"
      },
      {
        "astId": 1264,
        "contract": "contracts/EquiPool.sol:EquiPool",
        "label": "equiAsset",
        "offset": 0,
        "slot": "2",
        "type": "t_contract(IERC20)877"
      },
      {
        "astId": 1267,
        "contract": "contracts/EquiPool.sol:EquiPool",
        "label": "oracle",
        "offset": 0,
        "slot": "3",
        "type": "t_contract(PythOracle)2214"
      },
      {
        "astId": 1275,
        "contract": "contracts/EquiPool.sol:EquiPool",
        "label": "pyUSDBalance",
        "offset": 0,
        "slot": "4",
        "type": "t_uint256"
      },
      {
        "astId": 1277,
        "contract": "contracts/EquiPool.sol:EquiPool",
        "label": "assetBalance",
        "offset": 0,
        "slot": "5",
        "type": "t_uint256"
      }
    ],
    "types": {
      "t_address": {
        "encoding": "inplace",
        "label": "address",
        "numberOfBytes": "20"
      },
      "t_contract(IERC20)877": {
        "encoding": "inplace",
        "label": "contract IERC20",
        "numberOfBytes": "20"
      },
      "t_contract(PythOracle)2214": {
        "encoding": "inplace",
        "label": "contract PythOracle",
        "numberOfBytes": "20"
      },
      "t_uint256": {
        "encoding": "inplace",
        "label": "uint256",
        "numberOfBytes": "32"
      }
    }
  }
}