{
  "address": "0xd4f00FB9CB47366535c0eE4Eaa21E70C6DE8a87c",
  "abi": [
    {
      "inputs": [
        {
          "internalType": "address",
          "name": "_pyth",
          "type": "address"
        },
        {
          "internalType": "bytes32",
          "name": "_priceId",
          "type": "bytes32"
        }
      ],
      "stateMutability": "nonpayable",
      "type": "constructor"
    },
    {
      "inputs": [
        {
          "internalType": "bytes[]",
          "name": "pythPriceUpdate",
          "type": "bytes[]"
        }
      ],
      "name": "UpdateAndGetPrice",
      "outputs": [
        {
          "internalType": "uint256",
          "name": "",
          "type": "uint256"
        }
      ],
      "stateMutability": "payable",
      "type": "function"
    },
    {
      "inputs": [],
      "name": "getPrice",
      "outputs": [
        {
          "internalType": "uint256",
          "name": "",
          "type": "uint256"
        }
      ],
      "stateMutability": "view",
      "type": "function"
    },
    {
      "inputs": [],
      "name": "getPriceId",
      "outputs": [
        {
          "internalType": "bytes32",
          "name": "",
          "type": "bytes32"
        }
      ],
      "stateMutability": "view",
      "type": "function"
    },
    {
      "inputs": [
        {
          "internalType": "bytes[]",
          "name": "pythPriceUpdate",
          "type": "bytes[]"
        }
      ],
      "name": "getUpdateFee",
      "outputs": [
        {
          "internalType": "uint256",
          "name": "",
          "type": "uint256"
        }
      ],
      "stateMutability": "view",
      "type": "function"
    },
    {
      "inputs": [
        {
          "internalType": "bytes[]",
          "name": "pythPriceUpdate",
          "type": "bytes[]"
        }
      ],
      "name": "updatePrice",
      "outputs": [],
      "stateMutability": "payable",
      "type": "function"
    }
  ],
  "transactionHash": "0x149946fa3689bdfffaaf482da82d26321fcde260f1d2d3e4a04ba47fdf6726fe",
  "args": [
    "0xDd24F84d36BF92C65F92307595335bdFab5Bbd21",
    "0x4ec77ff732418ba9ffc3385c6f67108df6ce7295484be028861362c13142647c"
  ],
  "numDeployments": 1,
  "solcInputHash": "9c455ae29c3856dfed7a5589e3baf50b",
  "bytecode": "0x608060405234801561001057600080fd5b50604051610a35380380610a3583398101604081905261002f91610058565b600080546001600160a01b0319166001600160a01b039390931692909217909155600155610092565b6000806040838503121561006b57600080fd5b82516001600160a01b038116811461008257600080fd5b6020939093015192949293505050565b610994806100a16000396000f3fe60806040526004361061004a5760003560e01c80632592c0bf1461004f57806398d5fdca146100645780639eb5a6ec1461008b578063cf0be7eb146100a0578063d47eed45146100b3575b600080fd5b61006261005d3660046104dc565b6100d3565b005b34801561007057600080fd5b50610079610290565b60405190815260200160405180910390f35b34801561009757600080fd5b50600154610079565b6100796100ae3660046104dc565b61040a565b3480156100bf57600080fd5b506100796100ce3660046104dc565b610423565b6000805460405163d47eed4560e01b81526001600160a01b039091169063d47eed45906101049085906004016105f5565b602060405180830381865afa158015610121573d6000803e3d6000fd5b505050506040513d601f19601f820116820180604052508101906101459190610687565b90508034101561018f5760405162461bcd60e51b815260206004820152601060248201526f496e73756666696369656e742066656560801b60448201526064015b60405180910390fd5b600054604051631df3cbc560e31b81526001600160a01b039091169063ef9e5e289083906101c19086906004016105f5565b6000604051808303818588803b1580156101da57600080fd5b505af11580156101ee573d6000803e3d6000fd5b50505050508034111561028c5760003361020883346106b6565b604051600081818185875af1925050503d8060008114610244576040519150601f19603f3d011682016040523d82523d6000602084013e610249565b606091505b505090508061028a5760405162461bcd60e51b815260206004820152600d60248201526c1499599d5b990819985a5b1959609a1b6044820152606401610186565b505b5050565b6000805460015460405163052571af60e51b8152600481019190915261012c602482015282916001600160a01b03169063a4ae35e090604401608060405180830381865afa1580156102e6573d6000803e3d6000fd5b505050506040513d601f19601f8201168201806040525081019061030a91906106c9565b8051604082015191925060070b90600082136103595760405162461bcd60e51b815260206004820152600e60248201526d4e6567617469766520707269636560901b6044820152606401610186565b6000610366826012610760565b90506000808260030b126103965761038563ffffffff8316600a6108bc565b61038f90856108cf565b90506103bd565b61039f826108ff565b6103b09063ffffffff16600a6108bc565b6103ba9085610922565b90505b600081136104015760405162461bcd60e51b815260206004820152601160248201527005363616c6564207072696365203c3d203607c1b6044820152606401610186565b95945050505050565b6000610415826100d3565b61041d610290565b92915050565b6000805460405163d47eed4560e01b81526001600160a01b039091169063d47eed45906104549085906004016105f5565b602060405180830381865afa158015610471573d6000803e3d6000fd5b505050506040513d601f19601f8201168201806040525081019061041d9190610687565b634e487b7160e01b600052604160045260246000fd5b604051601f8201601f1916810167ffffffffffffffff811182821017156104d4576104d4610495565b604052919050565b600060208083850312156104ef57600080fd5b823567ffffffffffffffff8082111561050757600080fd5b8185019150601f868184011261051c57600080fd5b82358281111561052e5761052e610495565b8060051b61053d8682016104ab565b918252848101860191868101908a84111561055757600080fd5b87870192505b838310156105e7578235868111156105755760008081fd5b8701603f81018c136105875760008081fd5b8881013560408882111561059d5761059d610495565b6105ae828901601f19168c016104ab565b8281528e828486010111156105c35760008081fd5b828285018d83013760009281018c019290925250835250918701919087019061055d565b9a9950505050505050505050565b6000602080830181845280855180835260408601915060408160051b87010192508387016000805b8381101561067957888603603f1901855282518051808852835b81811015610652578281018a01518982018b01528901610637565b508781018901849052601f01601f191690960187019550938601939186019160010161061d565b509398975050505050505050565b60006020828403121561069957600080fd5b5051919050565b634e487b7160e01b600052601160045260246000fd5b8181038181111561041d5761041d6106a0565b6000608082840312156106db57600080fd5b6040516080810167ffffffffffffffff82821081831117156106ff576106ff610495565b81604052845191508160070b821461071657600080fd5b908252602084015190808216821461072d57600080fd5b5060208201526040830151600381900b811461074857600080fd5b60408201526060928301519281019290925250919050565b600381810b9083900b01637fffffff8113637fffffff198212171561041d5761041d6106a0565b80825b600180861161079957506107cc565b6001600160ff1b038290048211156107b3576107b36106a0565b808616156107c057918102915b9490941c93800261078a565b935093915050565b60008280156107ea57600181146107f4576107fd565b600191505061041d565b8291505061041d565b508161080b5750600061041d565b506001600082138082146108245780156108435761085d565b6001600160ff1b0383900483111561083e5761083e6106a0565b61085d565b6001600160ff1b0383900583121561085d5761085d6106a0565b50808316156108695750805b6108798360011c83840283610787565b600082136001600160ff1b0382900483111615610898576108986106a0565b60008212600160ff1b829005831216156108b4576108b46106a0565b029392505050565b60006108c883836107d4565b9392505050565b80820260008212600160ff1b841416156108eb576108eb6106a0565b818105831482151761041d5761041d6106a0565b60008160030b637fffffff198103610919576109196106a0565b60000392915050565b60008261093f57634e487b7160e01b600052601260045260246000fd5b600160ff1b821460001984141615610959576109596106a0565b50059056fea2646970667358221220835c1c7ff99152fb6bed5d7da096cefd4e21b4c5ac9325661bf338805aea075164736f6c63430008140033",
  "devdoc": {
    "kind": "dev",
    "methods": {},
    "version": 1
  },
  "userdoc": {
    "kind": "user",
    "methods": {},
    "version": 1
  },
  "storageLayout": {
    "storage": [
      {
        "astId": 2101,
        "contract": "contracts/PythOracle.sol:PythOracle",
        "label": "pyth",
        "offset": 0,
        "slot": "0",
        "type": "t_contract(IPyth)1096"
      },
      {
        "astId": 2103,
        "contract": "contracts/PythOracle.sol:PythOracle",
        "label": "priceId",
        "offset": 0,
        "slot": "1",
        "type": "t_bytes32"
      }
    ],
    "types": {
      "t_bytes32": {
        "encoding": "inplace",
        "label": "bytes32",
        "numberOfBytes": "32"
      },
      "t_contract(IPyth)1096": {
        "encoding": "inplace",
        "label": "contract IPyth",
        "numberOfBytes": "20"
      }
    }
  }
}