{
  "address": "0x418651ffC70fEE535299b9d62153638643d31fa3",
  "abi": [
    {
      "inputs": [
        {
          "internalType": "address",
          "name": "_pyth",
          "type": "address"
        },
        {
          "internalType": "bytes32",
          "name": "_priceId",
          "type": "bytes32"
        }
      ],
      "stateMutability": "nonpayable",
      "type": "constructor"
    },
    {
      "inputs": [
        {
          "internalType": "bytes[]",
          "name": "pythPriceUpdate",
          "type": "bytes[]"
        }
      ],
      "name": "UpdateAndGetPrice",
      "outputs": [
        {
          "internalType": "uint256",
          "name": "",
          "type": "uint256"
        }
      ],
      "stateMutability": "payable",
      "type": "function"
    },
    {
      "inputs": [],
      "name": "getPrice",
      "outputs": [
        {
          "internalType": "uint256",
          "name": "",
          "type": "uint256"
        }
      ],
      "stateMutability": "view",
      "type": "function"
    },
    {
      "inputs": [
        {
          "internalType": "bytes[]",
          "name": "pythPriceUpdate",
          "type": "bytes[]"
        }
      ],
      "name": "updatePrice",
      "outputs": [],
      "stateMutability": "payable",
      "type": "function"
    }
  ],
  "transactionHash": "0x3601ce73d66a85c28e0f9b2eeb5a43f2265383142bf51d783f4d478c2dc876c9",
  "args": [
    "0xDd24F84d36BF92C65F92307595335bdFab5Bbd21",
    "0x4ec77ff732418ba9ffc3385c6f67108df6ce7295484be028861362c13142647c"
  ],
  "numDeployments": 1,
  "solcInputHash": "623abb88719a7cd9fe1ba5505ce65d29",
  "bytecode": "0x608060405234801561001057600080fd5b5060405161063938038061063983398101604081905261002f91610058565b600080546001600160a01b0319166001600160a01b039390931692909217909155600155610092565b6000806040838503121561006b57600080fd5b82516001600160a01b038116811461008257600080fd5b6020939093015192949293505050565b610598806100a16000396000f3fe6080604052600436106100345760003560e01c80632592c0bf1461003957806398d5fdca1461004e578063cf0be7eb14610075575b600080fd5b61004c610047366004610307565b610088565b005b34801561005a57600080fd5b50610063610163565b60405190815260200160405180910390f35b610063610083366004610307565b6101e7565b6000805460405163d47eed4560e01b81526001600160a01b039091169063d47eed45906100b9908590600401610420565b602060405180830381865afa1580156100d6573d6000803e3d6000fd5b505050506040513d601f19601f820116820180604052508101906100fa91906104b2565b600054604051631df3cbc560e31b81529192506001600160a01b03169063ef9e5e2890839061012d908690600401610420565b6000604051808303818588803b15801561014657600080fd5b505af115801561015a573d6000803e3d6000fd5b50505050505050565b6000805460015460405163052571af60e51b8152600481019190915261012c602482015282916001600160a01b03169063a4ae35e090604401608060405180830381865afa1580156101b9573d6000803e3d6000fd5b505050506040513d601f19601f820116820180604052508101906101dd91906104cb565b5160070b92915050565b60006101f282610088565b6000805460015460405163052571af60e51b8152600481019190915261012c60248201526001600160a01b039091169063a4ae35e090604401608060405180830381865afa158015610248573d6000803e3d6000fd5b505050506040513d601f19601f8201168201806040525081019061026c91906104cb565b805190915060070b600081136102b95760405162461bcd60e51b815260206004820152600e60248201526d4e6567617469766520707269636560901b604482015260640160405180910390fd5b9392505050565b634e487b7160e01b600052604160045260246000fd5b604051601f8201601f1916810167ffffffffffffffff811182821017156102ff576102ff6102c0565b604052919050565b6000602080838503121561031a57600080fd5b823567ffffffffffffffff8082111561033257600080fd5b8185019150601f868184011261034757600080fd5b823582811115610359576103596102c0565b8060051b6103688682016102d6565b918252848101860191868101908a84111561038257600080fd5b87870192505b83831015610412578235868111156103a05760008081fd5b8701603f81018c136103b25760008081fd5b888101356040888211156103c8576103c86102c0565b6103d9828901601f19168c016102d6565b8281528e828486010111156103ee5760008081fd5b828285018d83013760009281018c0192909252508352509187019190870190610388565b9a9950505050505050505050565b6000602080830181845280855180835260408601915060408160051b87010192508387016000805b838110156104a457888603603f1901855282518051808852835b8181101561047d578281018a01518982018b01528901610462565b508781018901849052601f01601f1916909601870195509386019391860191600101610448565b509398975050505050505050565b6000602082840312156104c457600080fd5b5051919050565b6000608082840312156104dd57600080fd5b6040516080810167ffffffffffffffff8282108183111715610501576105016102c0565b81604052845191508160070b821461051857600080fd5b908252602084015190808216821461052f57600080fd5b5060208201526040830151600381900b811461054a57600080fd5b6040820152606092830151928101929092525091905056fea2646970667358221220d91aa953f3db58a13ad21166eed157548a12b4f8a6aeb0982aa0ef140eea7d6f64736f6c63430008140033",
  "devdoc": {
    "kind": "dev",
    "methods": {},
    "version": 1
  },
  "userdoc": {
    "kind": "user",
    "methods": {},
    "version": 1
  },
  "storageLayout": {
    "storage": [
      {
        "astId": 2101,
        "contract": "contracts/PythOracle.sol:PythOracle",
        "label": "pyth",
        "offset": 0,
        "slot": "0",
        "type": "t_contract(IPyth)1096"
      },
      {
        "astId": 2103,
        "contract": "contracts/PythOracle.sol:PythOracle",
        "label": "priceId",
        "offset": 0,
        "slot": "1",
        "type": "t_bytes32"
      }
    ],
    "types": {
      "t_bytes32": {
        "encoding": "inplace",
        "label": "bytes32",
        "numberOfBytes": "32"
      },
      "t_contract(IPyth)1096": {
        "encoding": "inplace",
        "label": "contract IPyth",
        "numberOfBytes": "20"
      }
    }
  }
}